{
  "contractName": "User",
  "abi": [
    {
      "anonymous": false,
      "inputs": [
        {
          "indexed": false,
          "name": "value",
          "type": "string"
        }
      ],
      "name": "setEvent",
      "type": "event"
    },
    {
      "constant": false,
      "inputs": [
        {
          "name": "_user",
          "type": "string"
        },
        {
          "name": "_pro",
          "type": "string"
        },
        {
          "name": "_value",
          "type": "string"
        }
      ],
      "name": "set",
      "outputs": [],
      "payable": false,
      "stateMutability": "nonpayable",
      "type": "function"
    },
    {
      "constant": true,
      "inputs": [
        {
          "name": "_user",
          "type": "string"
        },
        {
          "name": "_pro",
          "type": "string"
        }
      ],
      "name": "get",
      "outputs": [
        {
          "name": "",
          "type": "string"
        }
      ],
      "payable": false,
      "stateMutability": "view",
      "type": "function"
    }
  ],
  "bytecode": "0x6060604052341561000f57600080fd5b6104528061001e6000396000f30060606040526004361061004b5763ffffffff7c01000000000000000000000000000000000000000000000000000000006000350416633e10510b8114610050578063da465d74146100f1575b600080fd5b341561005b57600080fd5b61007a6024600480358281019290820135918135918201910135610129565b60405160208082528190810183818151815260200191508051906020019080838360005b838110156100b657808201518382015260200161009e565b50505050905090810190601f1680156100e35780820380516001836020036101000a031916815260200191505b509250505060405180910390f35b34156100fc57600080fd5b6101276024600480358281019290820135918135808301929082013591604435918201910135610224565b005b610131610379565b600080868660405180838380828437820191505092505050908152602001604051809103902060010184846040518083838082843782019150509250505090815260200160405180910390209050808054600181600116156101000203166002900480601f0160208091040260200160405190810160405280929190818152602001828054600181600116156101000203166002900480156102145780601f106101e957610100808354040283529160200191610214565b820191906000526020600020905b8154815290600101906020018083116101f757829003601f168201915b5050505050915050949350505050565b7fdabb8ae608e4e175e2e2619d0daeb5b4a9c62fa3e08058737d862eba72efa67f600087876040518083838082843782019150509250505090815260200160405180910390206001018585604051808383808284378201915050925050509081526020016040518091039020604051602080825282546002600019610100600184161502019091160490820181905281906040820190849080156103095780601f106102de57610100808354040283529160200191610309565b820191906000526020600020905b8154815290600101906020018083116102ec57829003601f168201915b50509250505060405180910390a181816000888860405180838380828437820191505092505050908152602001604051809103902060010186866040518083838082843782019150509250505090815260200160405190819003902061037092909161038b565b50505050505050565b60206040519081016040526000815290565b828054600181600116156101000203166002900490600052602060002090601f016020900481019282601f106103cc5782800160ff198235161785556103f9565b828001600101855582156103f9579182015b828111156103f95782358255916020019190600101906103de565b50610405929150610409565b5090565b61042391905b80821115610405576000815560010161040f565b905600a165627a7a72305820826304233980421d7f824892fd6c18e8044933c0a16791fc86761398b8b70b140029",
  "source": "pragma solidity ^0.4.4;\r\n\r\ncontract User {\r\n    struct userInfo\r\n    {\r\n        bool create;\r\n        mapping (string => string) property;\r\n    }\r\n\r\n    mapping (string => userInfo) userMap;\r\n\r\n    event setEvent(string value);\r\n    function set(string _user, string _pro, string _value) external{\r\n        setEvent(userMap[_user].property[_pro]);\r\n        userMap[_user].property[_pro] = _value;\r\n    }\r\n\r\n    function get(string _user, string _pro) constant external returns (string) {\r\n        string val = userMap[_user].property[_pro];\r\n        return val;\r\n    }\r\n    //function getProperty(string pro) public returns (string){\r\n\r\n//}\r\n\r\n}\r\n",
  "sourcePath": "/mnt/hgfs/src/web3j/tokenAPi/src/main/solidity/contracts/User.sol",
  "compiler": {
    "name": "solc",
    "version": "0.4.21+commit.dfe3193c.Emscripten.clang"
  },
  "schemaVersion": "2.0.0",
  "updatedAt": "2018-07-06T07:53:48.291Z"
}