{
  "contractName": "User",
  "abi": [
    {
      "constant": true,
      "inputs": [
        {
          "name": "_user",
          "type": "string"
        },
        {
          "name": "_pro",
          "type": "string"
        }
      ],
      "name": "get",
      "outputs": [
        {
          "name": "",
          "type": "string"
        }
      ],
      "payable": false,
      "stateMutability": "view",
      "type": "function"
    },
    {
      "constant": false,
      "inputs": [
        {
          "name": "_user",
          "type": "string"
        },
        {
          "name": "_pro",
          "type": "string"
        },
        {
          "name": "_value",
          "type": "string"
        }
      ],
      "name": "set",
      "outputs": [],
      "payable": false,
      "stateMutability": "nonpayable",
      "type": "function"
    },
    {
      "anonymous": false,
      "inputs": [
        {
          "indexed": false,
          "name": "value",
          "type": "string"
        }
      ],
      "name": "setEvent",
      "type": "event"
    }
  ],
  "bytecode": "0x6060604052341561000f57600080fd5b6104a88061001e6000396000f30060606040526004361061004c576000357c0100000000000000000000000000000000000000000000000000000000900463ffffffff1680633e10510b14610051578063da465d741461010c575b600080fd5b341561005c57600080fd5b610091600480803590602001908201803590602001919091929080359060200190820180359060200191909192905050610162565b6040518080602001828103825283818151815260200191508051906020019080838360005b838110156100d15780820151818401526020810190506100b6565b50505050905090810190601f1680156100fe5780820380516001836020036101000a031916815260200191505b509250505060405180910390f35b341561011757600080fd5b610160600480803590602001908201803590602001919091929080359060200190820180359060200191909192908035906020019082018035906020019190919290505061025d565b005b61016a6103c3565b600080868660405180838380828437820191505092505050908152602001604051809103902060010184846040518083838082843782019150509250505090815260200160405180910390209050808054600181600116156101000203166002900480601f01602080910402602001604051908101604052809291908181526020018280546001816001161561010002031660029004801561024d5780601f106102225761010080835404028352916020019161024d565b820191906000526020600020905b81548152906001019060200180831161023057829003601f168201915b5050505050915050949350505050565b7fdabb8ae608e4e175e2e2619d0daeb5b4a9c62fa3e08058737d862eba72efa67f60008787604051808383808284378201915050925050509081526020016040518091039020600101858560405180838380828437820191505092505050908152602001604051809103902060405180806020018281038252838181546001816001161561010002031660029004815260200191508054600181600116156101000203166002900480156103525780601f1061032757610100808354040283529160200191610352565b820191906000526020600020905b81548152906001019060200180831161033557829003601f168201915b50509250505060405180910390a1818160008888604051808383808284378201915050925050509081526020016040518091039020600101868660405180838380828437820191505092505050908152602001604051809103902091906103ba9291906103d7565b50505050505050565b602060405190810160405280600081525090565b828054600181600116156101000203166002900490600052602060002090601f016020900481019282601f1061041857803560ff1916838001178555610446565b82800160010185558215610446579182015b8281111561044557823582559160200191906001019061042a565b5b5090506104539190610457565b5090565b61047991905b8082111561047557600081600090555060010161045d565b5090565b905600a165627a7a723058202beb5492c12e025447f4ff65fa3f2f102b75f64b92d222ce00e259181bc426e40029",
  "source": "pragma solidity ^0.4.4;\r\n\r\ncontract User {\r\n    struct userInfo\r\n    {\r\n        bool create;\r\n        mapping (string => string) property;\r\n    }\r\n\r\n    mapping (string => userInfo) userMap;\r\n\r\n    event setEvent(string value);\r\n    function set(string _user, string _pro, string _value) external{\r\n        setEvent(userMap[_user].property[_pro]);\r\n        userMap[_user].property[_pro] = _value;\r\n    }\r\n\r\n    function get(string _user, string _pro) constant external returns (string) {\r\n        string val = userMap[_user].property[_pro];\r\n        return val;\r\n    }\r\n}\r\n",
  "sourcePath": "/usr/local/dapp/solidity/contracts/User.sol",
  "compiler": {
    "name": "solc",
    "version": "0.4.18+commit.9cf6e910.Emscripten.clang"
  },
  "schemaVersion": "1.0.1",
  "updatedAt": "2018-06-29T03:08:42.289Z"
}